{
  "_format": "hh3-artifact-1",
  "contractName": "Safe",
  "sourceName": "contracts/vaults/Safe.sol",
  "abi": [
    {
      "inputs": [
        {
          "internalType": "contract ERC20",
          "name": "_asset",
          "type": "address"
        },
        {
          "internalType": "address",
          "name": "_owner",
          "type": "address"
        },
        {
          "components": [
            {
              "internalType": "address",
              "name": "protocol",
              "type": "address"
            },
            {
              "internalType": "uint256",
              "name": "ratio",
              "type": "uint256"
            }
          ],
          "internalType": "struct Safe.Allocation[]",
          "name": "_allocations",
          "type": "tuple[]"
        },
        {
          "internalType": "address",
          "name": "_feeRecipient",
          "type": "address"
        }
      ],
      "stateMutability": "nonpayable",
      "type": "constructor"
    },
    {
      "inputs": [
        {
          "internalType": "address",
          "name": "spender",
          "type": "address"
        },
        {
          "internalType": "uint256",
          "name": "allowance",
          "type": "uint256"
        },
        {
          "internalType": "uint256",
          "name": "needed",
          "type": "uint256"
        }
      ],
      "name": "ERC20InsufficientAllowance",
      "type": "error"
    },
    {
      "inputs": [
        {
          "internalType": "address",
          "name": "sender",
          "type": "address"
        },
        {
          "internalType": "uint256",
          "name": "balance",
          "type": "uint256"
        },
        {
          "internalType": "uint256",
          "name": "needed",
          "type": "uint256"
        }
      ],
      "name": "ERC20InsufficientBalance",
      "type": "error"
    },
    {
      "inputs": [
        {
          "internalType": "address",
          "name": "approver",
          "type": "address"
        }
      ],
      "name": "ERC20InvalidApprover",
      "type": "error"
    },
    {
      "inputs": [
        {
          "internalType": "address",
          "name": "receiver",
          "type": "address"
        }
      ],
      "name": "ERC20InvalidReceiver",
      "type": "error"
    },
    {
      "inputs": [
        {
          "internalType": "address",
          "name": "sender",
          "type": "address"
        }
      ],
      "name": "ERC20InvalidSender",
      "type": "error"
    },
    {
      "inputs": [
        {
          "internalType": "address",
          "name": "spender",
          "type": "address"
        }
      ],
      "name": "ERC20InvalidSpender",
      "type": "error"
    },
    {
      "inputs": [
        {
          "internalType": "address",
          "name": "receiver",
          "type": "address"
        },
        {
          "internalType": "uint256",
          "name": "assets",
          "type": "uint256"
        },
        {
          "internalType": "uint256",
          "name": "max",
          "type": "uint256"
        }
      ],
      "name": "ERC4626ExceededMaxDeposit",
      "type": "error"
    },
    {
      "inputs": [
        {
          "internalType": "address",
          "name": "receiver",
          "type": "address"
        },
        {
          "internalType": "uint256",
          "name": "shares",
          "type": "uint256"
        },
        {
          "internalType": "uint256",
          "name": "max",
          "type": "uint256"
        }
      ],
      "name": "ERC4626ExceededMaxMint",
      "type": "error"
    },
    {
      "inputs": [
        {
          "internalType": "address",
          "name": "owner",
          "type": "address"
        },
        {
          "internalType": "uint256",
          "name": "shares",
          "type": "uint256"
        },
        {
          "internalType": "uint256",
          "name": "max",
          "type": "uint256"
        }
      ],
      "name": "ERC4626ExceededMaxRedeem",
      "type": "error"
    },
    {
      "inputs": [
        {
          "internalType": "address",
          "name": "owner",
          "type": "address"
        },
        {
          "internalType": "uint256",
          "name": "assets",
          "type": "uint256"
        },
        {
          "internalType": "uint256",
          "name": "max",
          "type": "uint256"
        }
      ],
      "name": "ERC4626ExceededMaxWithdraw",
      "type": "error"
    },
    {
      "inputs": [],
      "name": "EnforcedPause",
      "type": "error"
    },
    {
      "inputs": [],
      "name": "ExpectedPause",
      "type": "error"
    },
    {
      "inputs": [],
      "name": "FeeTooHigh",
      "type": "error"
    },
    {
      "inputs": [],
      "name": "InvalidAllocationRatio",
      "type": "error"
    },
    {
      "inputs": [],
      "name": "InvalidProtocolOrAsset",
      "type": "error"
    },
    {
      "inputs": [],
      "name": "NoAllocationsDefined",
      "type": "error"
    },
    {
      "inputs": [
        {
          "internalType": "address",
          "name": "owner",
          "type": "address"
        }
      ],
      "name": "OwnableInvalidOwner",
      "type": "error"
    },
    {
      "inputs": [
        {
          "internalType": "address",
          "name": "account",
          "type": "address"
        }
      ],
      "name": "OwnableUnauthorizedAccount",
      "type": "error"
    },
    {
      "inputs": [
        {
          "internalType": "address",
          "name": "token",
          "type": "address"
        }
      ],
      "name": "SafeERC20FailedOperation",
      "type": "error"
    },
    {
      "inputs": [],
      "name": "VaultIsPaused",
      "type": "error"
    },
    {
      "anonymous": false,
      "inputs": [
        {
          "indexed": true,
          "internalType": "address",
          "name": "protocol",
          "type": "address"
        },
        {
          "indexed": false,
          "internalType": "uint256",
          "name": "newRatio",
          "type": "uint256"
        }
      ],
      "name": "AllocationUpdated",
      "type": "event"
    },
    {
      "anonymous": false,
      "inputs": [
        {
          "indexed": true,
          "internalType": "address",
          "name": "owner",
          "type": "address"
        },
        {
          "indexed": true,
          "internalType": "address",
          "name": "spender",
          "type": "address"
        },
        {
          "indexed": false,
          "internalType": "uint256",
          "name": "value",
          "type": "uint256"
        }
      ],
      "name": "Approval",
      "type": "event"
    },
    {
      "anonymous": false,
      "inputs": [
        {
          "indexed": false,
          "internalType": "uint256",
          "name": "i",
          "type": "uint256"
        },
        {
          "indexed": false,
          "internalType": "address",
          "name": "protocol",
          "type": "address"
        },
        {
          "indexed": false,
          "internalType": "uint256",
          "name": "ratio",
          "type": "uint256"
        },
        {
          "indexed": false,
          "internalType": "uint256",
          "name": "allocationAmount",
          "type": "uint256"
        }
      ],
      "name": "DebugAllocStep",
      "type": "event"
    },
    {
      "anonymous": false,
      "inputs": [
        {
          "indexed": false,
          "internalType": "uint256",
          "name": "assets",
          "type": "uint256"
        },
        {
          "indexed": false,
          "internalType": "uint256",
          "name": "fee",
          "type": "uint256"
        },
        {
          "indexed": false,
          "internalType": "uint256",
          "name": "netAssets",
          "type": "uint256"
        }
      ],
      "name": "DebugBeforeAlloc",
      "type": "event"
    },
    {
      "anonymous": false,
      "inputs": [
        {
          "indexed": true,
          "internalType": "address",
          "name": "sender",
          "type": "address"
        },
        {
          "indexed": true,
          "internalType": "address",
          "name": "owner",
          "type": "address"
        },
        {
          "indexed": false,
          "internalType": "uint256",
          "name": "assets",
          "type": "uint256"
        },
        {
          "indexed": false,
          "internalType": "uint256",
          "name": "shares",
          "type": "uint256"
        }
      ],
      "name": "Deposit",
      "type": "event"
    },
    {
      "anonymous": false,
      "inputs": [
        {
          "indexed": true,
          "internalType": "address",
          "name": "caller",
          "type": "address"
        }
      ],
      "name": "EmergencyPaused",
      "type": "event"
    },
    {
      "anonymous": false,
      "inputs": [
        {
          "indexed": true,
          "internalType": "address",
          "name": "caller",
          "type": "address"
        }
      ],
      "name": "EmergencyUnpaused",
      "type": "event"
    },
    {
      "anonymous": false,
      "inputs": [
        {
          "indexed": true,
          "internalType": "uint256",
          "name": "newFeeBP",
          "type": "uint256"
        }
      ],
      "name": "EntryFeeUpdated",
      "type": "event"
    },
    {
      "anonymous": false,
      "inputs": [
        {
          "indexed": true,
          "internalType": "uint256",
          "name": "newFeeBP",
          "type": "uint256"
        }
      ],
      "name": "ExitFeeUpdated",
      "type": "event"
    },
    {
      "anonymous": false,
      "inputs": [
        {
          "indexed": true,
          "internalType": "address",
          "name": "previousOwner",
          "type": "address"
        },
        {
          "indexed": true,
          "internalType": "address",
          "name": "newOwner",
          "type": "address"
        }
      ],
      "name": "OwnershipTransferred",
      "type": "event"
    },
    {
      "anonymous": false,
      "inputs": [
        {
          "indexed": false,
          "internalType": "address",
          "name": "account",
          "type": "address"
        }
      ],
      "name": "Paused",
      "type": "event"
    },
    {
      "anonymous": false,
      "inputs": [
        {
          "indexed": true,
          "internalType": "address",
          "name": "from",
          "type": "address"
        },
        {
          "indexed": true,
          "internalType": "address",
          "name": "to",
          "type": "address"
        },
        {
          "indexed": false,
          "internalType": "uint256",
          "name": "value",
          "type": "uint256"
        }
      ],
      "name": "Transfer",
      "type": "event"
    },
    {
      "anonymous": false,
      "inputs": [
        {
          "indexed": false,
          "internalType": "address",
          "name": "account",
          "type": "address"
        }
      ],
      "name": "Unpaused",
      "type": "event"
    },
    {
      "anonymous": false,
      "inputs": [
        {
          "indexed": true,
          "internalType": "address",
          "name": "sender",
          "type": "address"
        },
        {
          "indexed": true,
          "internalType": "address",
          "name": "receiver",
          "type": "address"
        },
        {
          "indexed": true,
          "internalType": "address",
          "name": "owner",
          "type": "address"
        },
        {
          "indexed": false,
          "internalType": "uint256",
          "name": "assets",
          "type": "uint256"
        },
        {
          "indexed": false,
          "internalType": "uint256",
          "name": "shares",
          "type": "uint256"
        }
      ],
      "name": "Withdraw",
      "type": "event"
    },
    {
      "inputs": [
        {
          "internalType": "address",
          "name": "owner",
          "type": "address"
        },
        {
          "internalType": "address",
          "name": "spender",
          "type": "address"
        }
      ],
      "name": "allowance",
      "outputs": [
        {
          "internalType": "uint256",
          "name": "",
          "type": "uint256"
        }
      ],
      "stateMutability": "view",
      "type": "function"
    },
    {
      "inputs": [
        {
          "internalType": "address",
          "name": "spender",
          "type": "address"
        },
        {
          "internalType": "uint256",
          "name": "value",
          "type": "uint256"
        }
      ],
      "name": "approve",
      "outputs": [
        {
          "internalType": "bool",
          "name": "",
          "type": "bool"
        }
      ],
      "stateMutability": "nonpayable",
      "type": "function"
    },
    {
      "inputs": [],
      "name": "asset",
      "outputs": [
        {
          "internalType": "address",
          "name": "",
          "type": "address"
        }
      ],
      "stateMutability": "view",
      "type": "function"
    },
    {
      "inputs": [
        {
          "internalType": "address",
          "name": "account",
          "type": "address"
        }
      ],
      "name": "balanceOf",
      "outputs": [
        {
          "internalType": "uint256",
          "name": "",
          "type": "uint256"
        }
      ],
      "stateMutability": "view",
      "type": "function"
    },
    {
      "inputs": [
        {
          "internalType": "uint256",
          "name": "shares",
          "type": "uint256"
        }
      ],
      "name": "convertToAssets",
      "outputs": [
        {
          "internalType": "uint256",
          "name": "",
          "type": "uint256"
        }
      ],
      "stateMutability": "view",
      "type": "function"
    },
    {
      "inputs": [
        {
          "internalType": "uint256",
          "name": "assets",
          "type": "uint256"
        }
      ],
      "name": "convertToShares",
      "outputs": [
        {
          "internalType": "uint256",
          "name": "",
          "type": "uint256"
        }
      ],
      "stateMutability": "view",
      "type": "function"
    },
    {
      "inputs": [],
      "name": "decimals",
      "outputs": [
        {
          "internalType": "uint8",
          "name": "",
          "type": "uint8"
        }
      ],
      "stateMutability": "view",
      "type": "function"
    },
    {
      "inputs": [
        {
          "internalType": "uint256",
          "name": "assets",
          "type": "uint256"
        },
        {
          "internalType": "address",
          "name": "receiver",
          "type": "address"
        }
      ],
      "name": "deposit",
      "outputs": [
        {
          "internalType": "uint256",
          "name": "shares",
          "type": "uint256"
        }
      ],
      "stateMutability": "nonpayable",
      "type": "function"
    },
    {
      "inputs": [],
      "name": "entryFeeBP",
      "outputs": [
        {
          "internalType": "uint256",
          "name": "",
          "type": "uint256"
        }
      ],
      "stateMutability": "view",
      "type": "function"
    },
    {
      "inputs": [],
      "name": "exitFeeBP",
      "outputs": [
        {
          "internalType": "uint256",
          "name": "",
          "type": "uint256"
        }
      ],
      "stateMutability": "view",
      "type": "function"
    },
    {
      "inputs": [],
      "name": "feeRecipient",
      "outputs": [
        {
          "internalType": "address",
          "name": "",
          "type": "address"
        }
      ],
      "stateMutability": "view",
      "type": "function"
    },
    {
      "inputs": [],
      "name": "getAPY",
      "outputs": [
        {
          "internalType": "uint256",
          "name": "",
          "type": "uint256"
        }
      ],
      "stateMutability": "pure",
      "type": "function"
    },
    {
      "inputs": [],
      "name": "getAllocations",
      "outputs": [
        {
          "internalType": "address[]",
          "name": "_tokens",
          "type": "address[]"
        },
        {
          "internalType": "uint256[]",
          "name": "_ratios",
          "type": "uint256[]"
        }
      ],
      "stateMutability": "view",
      "type": "function"
    },
    {
      "inputs": [],
      "name": "isPaused",
      "outputs": [
        {
          "internalType": "bool",
          "name": "",
          "type": "bool"
        }
      ],
      "stateMutability": "view",
      "type": "function"
    },
    {
      "inputs": [
        {
          "internalType": "address",
          "name": "",
          "type": "address"
        }
      ],
      "name": "maxDeposit",
      "outputs": [
        {
          "internalType": "uint256",
          "name": "",
          "type": "uint256"
        }
      ],
      "stateMutability": "view",
      "type": "function"
    },
    {
      "inputs": [
        {
          "internalType": "address",
          "name": "",
          "type": "address"
        }
      ],
      "name": "maxMint",
      "outputs": [
        {
          "internalType": "uint256",
          "name": "",
          "type": "uint256"
        }
      ],
      "stateMutability": "view",
      "type": "function"
    },
    {
      "inputs": [
        {
          "internalType": "address",
          "name": "owner",
          "type": "address"
        }
      ],
      "name": "maxRedeem",
      "outputs": [
        {
          "internalType": "uint256",
          "name": "",
          "type": "uint256"
        }
      ],
      "stateMutability": "view",
      "type": "function"
    },
    {
      "inputs": [
        {
          "internalType": "address",
          "name": "owner",
          "type": "address"
        }
      ],
      "name": "maxWithdraw",
      "outputs": [
        {
          "internalType": "uint256",
          "name": "",
          "type": "uint256"
        }
      ],
      "stateMutability": "view",
      "type": "function"
    },
    {
      "inputs": [
        {
          "internalType": "uint256",
          "name": "shares",
          "type": "uint256"
        },
        {
          "internalType": "address",
          "name": "receiver",
          "type": "address"
        }
      ],
      "name": "mint",
      "outputs": [
        {
          "internalType": "uint256",
          "name": "assets",
          "type": "uint256"
        }
      ],
      "stateMutability": "nonpayable",
      "type": "function"
    },
    {
      "inputs": [],
      "name": "name",
      "outputs": [
        {
          "internalType": "string",
          "name": "",
          "type": "string"
        }
      ],
      "stateMutability": "view",
      "type": "function"
    },
    {
      "inputs": [],
      "name": "owner",
      "outputs": [
        {
          "internalType": "address",
          "name": "",
          "type": "address"
        }
      ],
      "stateMutability": "view",
      "type": "function"
    },
    {
      "inputs": [],
      "name": "pause",
      "outputs": [],
      "stateMutability": "nonpayable",
      "type": "function"
    },
    {
      "inputs": [],
      "name": "paused",
      "outputs": [
        {
          "internalType": "bool",
          "name": "",
          "type": "bool"
        }
      ],
      "stateMutability": "view",
      "type": "function"
    },
    {
      "inputs": [
        {
          "internalType": "uint256",
          "name": "_assets",
          "type": "uint256"
        }
      ],
      "name": "previewDeposit",
      "outputs": [
        {
          "internalType": "uint256",
          "name": "",
          "type": "uint256"
        }
      ],
      "stateMutability": "view",
      "type": "function"
    },
    {
      "inputs": [
        {
          "internalType": "uint256",
          "name": "_shares",
          "type": "uint256"
        }
      ],
      "name": "previewMint",
      "outputs": [
        {
          "internalType": "uint256",
          "name": "",
          "type": "uint256"
        }
      ],
      "stateMutability": "view",
      "type": "function"
    },
    {
      "inputs": [
        {
          "internalType": "uint256",
          "name": "_shares",
          "type": "uint256"
        }
      ],
      "name": "previewRedeem",
      "outputs": [
        {
          "internalType": "uint256",
          "name": "",
          "type": "uint256"
        }
      ],
      "stateMutability": "view",
      "type": "function"
    },
    {
      "inputs": [
        {
          "internalType": "uint256",
          "name": "_assets",
          "type": "uint256"
        }
      ],
      "name": "previewWithdraw",
      "outputs": [
        {
          "internalType": "uint256",
          "name": "",
          "type": "uint256"
        }
      ],
      "stateMutability": "view",
      "type": "function"
    },
    {
      "inputs": [
        {
          "internalType": "uint256",
          "name": "shares",
          "type": "uint256"
        },
        {
          "internalType": "address",
          "name": "receiver",
          "type": "address"
        },
        {
          "internalType": "address",
          "name": "owner",
          "type": "address"
        }
      ],
      "name": "redeem",
      "outputs": [
        {
          "internalType": "uint256",
          "name": "assets",
          "type": "uint256"
        }
      ],
      "stateMutability": "nonpayable",
      "type": "function"
    },
    {
      "inputs": [],
      "name": "renounceOwnership",
      "outputs": [],
      "stateMutability": "nonpayable",
      "type": "function"
    },
    {
      "inputs": [
        {
          "internalType": "uint256",
          "name": "_newAPY",
          "type": "uint256"
        }
      ],
      "name": "setAPY",
      "outputs": [],
      "stateMutability": "nonpayable",
      "type": "function"
    },
    {
      "inputs": [
        {
          "components": [
            {
              "internalType": "address",
              "name": "protocol",
              "type": "address"
            },
            {
              "internalType": "uint256",
              "name": "ratio",
              "type": "uint256"
            }
          ],
          "internalType": "struct Safe.Allocation[]",
          "name": "_newAllocations",
          "type": "tuple[]"
        }
      ],
      "name": "setAllocations",
      "outputs": [],
      "stateMutability": "nonpayable",
      "type": "function"
    },
    {
      "inputs": [
        {
          "internalType": "uint256",
          "name": "_newFeeBP",
          "type": "uint256"
        }
      ],
      "name": "setEntryFeeBP",
      "outputs": [],
      "stateMutability": "nonpayable",
      "type": "function"
    },
    {
      "inputs": [
        {
          "internalType": "uint256",
          "name": "_newFeeBP",
          "type": "uint256"
        }
      ],
      "name": "setExitFeeBP",
      "outputs": [],
      "stateMutability": "nonpayable",
      "type": "function"
    },
    {
      "inputs": [],
      "name": "symbol",
      "outputs": [
        {
          "internalType": "string",
          "name": "",
          "type": "string"
        }
      ],
      "stateMutability": "view",
      "type": "function"
    },
    {
      "inputs": [],
      "name": "totalAssets",
      "outputs": [
        {
          "internalType": "uint256",
          "name": "",
          "type": "uint256"
        }
      ],
      "stateMutability": "view",
      "type": "function"
    },
    {
      "inputs": [],
      "name": "totalSupply",
      "outputs": [
        {
          "internalType": "uint256",
          "name": "",
          "type": "uint256"
        }
      ],
      "stateMutability": "view",
      "type": "function"
    },
    {
      "inputs": [
        {
          "internalType": "address",
          "name": "to",
          "type": "address"
        },
        {
          "internalType": "uint256",
          "name": "value",
          "type": "uint256"
        }
      ],
      "name": "transfer",
      "outputs": [
        {
          "internalType": "bool",
          "name": "",
          "type": "bool"
        }
      ],
      "stateMutability": "nonpayable",
      "type": "function"
    },
    {
      "inputs": [
        {
          "internalType": "address",
          "name": "from",
          "type": "address"
        },
        {
          "internalType": "address",
          "name": "to",
          "type": "address"
        },
        {
          "internalType": "uint256",
          "name": "value",
          "type": "uint256"
        }
      ],
      "name": "transferFrom",
      "outputs": [
        {
          "internalType": "bool",
          "name": "",
          "type": "bool"
        }
      ],
      "stateMutability": "nonpayable",
      "type": "function"
    },
    {
      "inputs": [
        {
          "internalType": "address",
          "name": "newOwner",
          "type": "address"
        }
      ],
      "name": "transferOwnership",
      "outputs": [],
      "stateMutability": "nonpayable",
      "type": "function"
    },
    {
      "inputs": [],
      "name": "unpause",
      "outputs": [],
      "stateMutability": "nonpayable",
      "type": "function"
    },
    {
      "inputs": [
        {
          "internalType": "uint256",
          "name": "assets",
          "type": "uint256"
        },
        {
          "internalType": "address",
          "name": "receiver",
          "type": "address"
        },
        {
          "internalType": "address",
          "name": "owner",
          "type": "address"
        }
      ],
      "name": "withdraw",
      "outputs": [
        {
          "internalType": "uint256",
          "name": "shares",
          "type": "uint256"
        }
      ],
      "stateMutability": "nonpayable",
      "type": "function"
    }
  ],
  "bytecode": "0x60c060405260646008556032600955348015610019575f5ffd5b50604051612a09380380612a09833981016040819052610038916103d4565b82846040518060400160405280600f81526020016e0436c61726974792053616665204c5608c1b81525060405180604001604052806005815260200164635341464560d81b815250816003908161008f9190610568565b50600461009c8282610568565b5050505f5f6100b08361021260201b60201c565b91509150816100c05760126100c2565b805b60ff1660a05250506001600160a01b0390811660805281166100fd57604051631e4fbdf760e01b81525f600482015260240160405180910390fd5b610106816102e8565b505f8251116101285760405163ed2c26ef60e01b815260040160405180910390fd5b5f805b83518110156101c557600684828151811061014857610148610622565b6020908102919091018101518254600180820185555f94855293839020825160029092020180546001600160a01b0319166001600160a01b0390921691909117815591015191015583518490829081106101a4576101a4610622565b602002602001015160200151826101bb9190610636565b915060010161012b565b5080612710146101e857604051630336d63960e11b815260040160405180910390fd5b50600a80546001600160a01b0319166001600160a01b039290921691909117905550610688915050565b60408051600481526024810182526020810180516001600160e01b031663313ce56760e01b17905290515f918291829182916001600160a01b038716916102589161065b565b5f60405180830381855afa9150503d805f8114610290576040519150601f19603f3d011682016040523d82523d5f602084013e610295565b606091505b50915091508180156102a957506020815110155b156102dc575f818060200190518101906102c39190610671565b905060ff81116102da576001969095509350505050565b505b505f9485945092505050565b600580546001600160a01b03838116610100818102610100600160a81b031985161790945560405193909204169182907f8be0079c531659141344cd1fd0a4f28419497f9722a3daafe3b4186f6b6457e0905f90a35050565b6001600160a01b0381168114610355575f5ffd5b50565b805161036381610341565b919050565b634e487b7160e01b5f52604160045260245ffd5b604080519081016001600160401b038111828210171561039e5761039e610368565b60405290565b604051601f8201601f191681016001600160401b03811182821017156103cc576103cc610368565b604052919050565b5f5f5f5f608085870312156103e7575f5ffd5b84516103f281610341565b602086015190945061040381610341565b60408601519093506001600160401b0381111561041e575f5ffd5b8501601f8101871361042e575f5ffd5b80516001600160401b0381111561044757610447610368565b61045660208260051b016103a4565b8082825260208201915060208360061b850101925089831115610477575f5ffd5b6020840193505b828410156104c7576040848b031215610495575f5ffd5b61049d61037c565b84516104a881610341565b815260208581015181830152908352604090940193919091019061047e565b94506104d99250505060608601610358565b905092959194509250565b600181811c908216806104f857607f821691505b60208210810361051657634e487b7160e01b5f52602260045260245ffd5b50919050565b601f82111561056357805f5260205f20601f840160051c810160208510156105415750805b601f840160051c820191505b81811015610560575f815560010161054d565b50505b505050565b81516001600160401b0381111561058157610581610368565b6105958161058f84546104e4565b8461051c565b6020601f8211600181146105c7575f83156105b05750848201515b5f19600385901b1c1916600184901b178455610560565b5f84815260208120601f198516915b828110156105f657878501518255602094850194600190920191016105d6565b508482101561061357868401515f19600387901b60f8161c191681555b50505050600190811b01905550565b634e487b7160e01b5f52603260045260245ffd5b8082018082111561065557634e487b7160e01b5f52601160045260245ffd5b92915050565b5f82518060208501845e5f920191825250919050565b5f60208284031215610681575f5ffd5b5051919050565b60805160a05161233d6106cc5f395f6107a401525f8181610342015281816105460152818161099e01528181610a450152818161113c015261161a015261233d5ff3fe608060405234801561000f575f5ffd5b506004361061024a575f3560e01c80636e553f6511610140578063b3d7f6b9116100bf578063ce96cb7711610084578063ce96cb77146104dc578063d2cbf7ad146104ef578063d905777e146104f7578063dd62ed3e1461050a578063ef8b30f71461051d578063f2fde38b14610530575f5ffd5b8063b3d7f6b914610490578063b460af94146104a3578063ba087652146104b6578063c63d75b614610382578063c6e6f592146104c9575f5ffd5b806394bf804d1161010557806394bf804d1461044757806395d89b411461045a5780639a3515be14610462578063a9059cbb14610475578063b187bd2614610488575f5ffd5b80636e553f65146103e657806370a08231146103f9578063715018a6146104215780638456cb59146104295780638da5cb5b14610431575f5ffd5b806324f45e67116101cc578063469048401161019157806346904840146103965780634cdad506146103a95780634f174f99146103bc5780635c975abb146103c557806365ed6e23146103d0575f5ffd5b806324f45e6714610313578063313ce5671461032657806338d52e0f146103405780633f4ba83a1461037a578063402d267d14610382575f5ffd5b80630a28a477116102125780630a28a477146102c95780631180f5cf146102dc57806318160ddd146102ef5780631f1fbcb9146102f757806323b872dd14610300575f5ffd5b806301e1d1141461024e57806304f29d591461026957806306fdde031461027e57806307a2d13a14610293578063095ea7b3146102a6575b5f5ffd5b610256610543565b6040519081526020015b60405180910390f35b61027c610277366004611d92565b6105d2565b005b61028661062f565b6040516102609190611da9565b6102566102a1366004611d92565b6106bf565b6102b96102b4366004611df9565b6106d0565b6040519015158152602001610260565b6102566102d7366004611d92565b6106e7565b61027c6102ea366004611d92565b610710565b600254610256565b61025660085481565b6102b961030e366004611e21565b61076d565b61027c610321366004611d92565b610790565b61032e61079d565b60405160ff9091168152602001610260565b7f00000000000000000000000000000000000000000000000000000000000000005b6040516001600160a01b039091168152602001610260565b61027c6107c8565b610256610390366004611e5b565b505f1990565b600a54610362906001600160a01b031681565b6102566103b7366004611d92565b610804565b61025660095481565b60055460ff166102b9565b6103d8610827565b604051610260929190611e74565b6102566103f4366004611efd565b610974565b610256610407366004611e5b565b6001600160a01b03165f9081526020819052604090205490565b61027c6109da565b61027c6109ed565b60055461010090046001600160a01b0316610362565b610256610455366004611efd565b610a29565b610286610a74565b61027c610470366004611f95565b610a83565b6102b9610483366004611df9565b610bb0565b6102b9610bbd565b61025661049e366004611d92565b610bca565b6102566104b136600461206d565b610bed565b6102566104c436600461206d565b610cf0565b6102566104d7366004611d92565b610dee565b6102566104ea366004611e5b565b610df9565b610190610256565b610256610505366004611e5b565b610e1b565b6102566105183660046120a6565b610e38565b61025661052b366004611d92565b610e62565b61027c61053e366004611e5b565b610e7f565b5f7f00000000000000000000000000000000000000000000000000000000000000006040516370a0823160e01b81523060048201526001600160a01b0391909116906370a0823190602401602060405180830381865afa1580156105a9573d5f5f3e3d5ffd5b505050506040513d601f19601f820116820180604052508101906105cd91906120ce565b905090565b6105da610ebc565b6103e88111156105fd5760405163cd4e616760e01b815260040160405180910390fd5b600981905560405181907f859032f804ed5430b8e45b8150b2ba750fc74328fe3b00f4fc89d50198983b21905f90a250565b60606003805461063e906120e5565b80601f016020809104026020016040519081016040528092919081815260200182805461066a906120e5565b80156106b55780601f1061068c576101008083540402835291602001916106b5565b820191905f5260205f20905b81548152906001019060200180831161069857829003601f168201915b5050505050905090565b5f6106ca825f610eef565b92915050565b5f336106dd818585610f27565b5060019392505050565b5f5f6106f583600954610f39565b90506107096107048285612131565b610f68565b9392505050565b610718610ebc565b6103e881111561073b5760405163cd4e616760e01b815260040160405180910390fd5b600881905560405181907f24a0b2e591795f2c27be52ff14a57d0a39ac957304305bc05e8b04be49e8fe15905f90a250565b5f3361077a858285610f74565b610785858585610fd8565b506001949350505050565b610798610ebc565b600755565b5f6105cd817f0000000000000000000000000000000000000000000000000000000000000000612144565b6107d0610ebc565b6107d8611035565b60405133907ff5cbf596165cc457b2cd92e8d8450827ee314968160a5696402d75766fc52caf905f90a2565b5f5f61080f836106bf565b905061081d81600954611087565b610709908261215d565b60065460609081908067ffffffffffffffff81111561084857610848611f27565b604051908082528060200260200182016040528015610871578160200160208202803683370190505b5092508067ffffffffffffffff81111561088d5761088d611f27565b6040519080825280602002602001820160405280156108b6578160200160208202803683370190505b5091505f5b8181101561096e57600681815481106108d6576108d6612170565b5f91825260209091206002909102015484516001600160a01b039091169085908390811061090657610906612170565b60200260200101906001600160a01b031690816001600160a01b0316815250506006818154811061093957610939612170565b905f5260205f2090600202016001015483828151811061095b5761095b612170565b60209081029190910101526001016108bb565b50509091565b5f61097d6110ae565b61098b565b60405180910390fd5b61099483610e62565b90506109cf3330857f00000000000000000000000000000000000000000000000000000000000000005b6001600160a01b03169291906110d2565b6106ca828483611139565b6109e2610ebc565b6109eb5f611575565b565b6109f5610ebc565b6109fd6115ce565b60405133907fb8fad2fa0ed7a383e747c309ef2c4391d7b65592a48893e57ccc1fab70791456905f90a2565b5f610a326110ae565b610a3b83610bca565b9050610a693330837f00000000000000000000000000000000000000000000000000000000000000006109be565b6106ca828285611139565b60606004805461063e906120e5565b610a8b610ebc565b5f815111610aac5760405163ed2c26ef60e01b815260040160405180910390fd5b5f610ab8600682611d50565b5f5b8251811015610b54576006838281518110610ad757610ad7612170565b6020908102919091018101518254600180820185555f94855293839020825160029092020180546001600160a01b0319166001600160a01b039092169190911781559101519101558251839082908110610b3357610b33612170565b60200260200101516020015182610b4a9190612131565b9150600101610aba565b508061271014610b7757604051630336d63960e11b815260040160405180910390fd5b6040515f808252907f183f2ce0b749ed46549cb16586af0c501abab8d242cc4b2076aec30d2dd9c4bc9060200160405180910390a25050565b5f336106dd818585610fd8565b5f6105cd60055460ff1690565b5f5f610bd58361160b565b9050610be381600854610f39565b6107099082612131565b5f610bf66110ae565b610bff82610df9565b841115610c4e5760405162461bcd60e51b815260206004820152601f60248201527f455243343632363a207769746864726177206d6f7265207468616e206d6178006044820152606401610982565b610c57846106e7565b9050336001600160a01b03831614610ce4575f610c748333610e38565b90505f198114610ce25781811015610cce5760405162461bcd60e51b815260206004820152601f60248201527f455243343632363a20696e73756666696369656e7420616c6c6f77616e6365006044820152606401610982565b610ce28333610cdd858561215d565b610f27565b505b61070983838684611617565b5f610cf96110ae565b610d0282610e1b565b841115610d515760405162461bcd60e51b815260206004820152601d60248201527f455243343632363a2072656465656d206d6f7265207468616e206d61780000006044820152606401610982565b610d5a84610804565b9050336001600160a01b03831614610de2575f610d778333610e38565b90505f198114610de05784811015610dd15760405162461bcd60e51b815260206004820152601f60248201527f455243343632363a20696e73756666696369656e7420616c6c6f77616e6365006044820152606401610982565b610de08333610cdd888561215d565b505b61070983838387611617565b5f6106ca825f6118a9565b6001600160a01b0381165f908152602081905260408120546106ca905f610eef565b6001600160a01b0381165f908152602081905260408120546106ca565b6001600160a01b039182165f90815260016020908152604080832093909416825291909152205490565b5f5f610e7083600854611087565b90506107096104d7828561215d565b610e87610ebc565b6001600160a01b038116610eb057604051631e4fbdf760e01b81525f6004820152602401610982565b610eb981611575565b50565b6005546001600160a01b036101009091041633146109eb5760405163118cdaa760e01b8152336004820152602401610982565b5f610709610efb610543565b610f06906001612131565b610f115f600a612267565b600254610f1e9190612131565b859190856118d8565b610f348383836001611923565b505050565b5f612710600181610f4a8587612275565b610f549190612131565b610f5e919061215d565b61070991906122a0565b5f6106ca8260016118a9565b5f610f7f8484610e38565b90505f19811015610fd25781811015610fc457604051637dc7a0d960e11b81526001600160a01b03841660048201526024810182905260448101839052606401610982565b610fd284848484035f611923565b50505050565b6001600160a01b03831661100157604051634b637e8f60e11b81525f6004820152602401610982565b6001600160a01b03821661102a5760405163ec442f0560e01b81525f6004820152602401610982565b610f348383836119f5565b61103d611b1b565b6005805460ff191690557f5db9ee0a495bf2e6ff9c91a7834c1ba4fdd244a5e8aa4e537bd38aeae4b073aa335b6040516001600160a01b03909116815260200160405180910390a1565b5f61109461271083612131565b6001612710846110a48188612275565b610f4a9190612131565b60055460ff16156109eb5760405163d93c066560e01b815260040160405180910390fd5b6040516001600160a01b038481166024830152838116604483015260648201839052610fd29186918216906323b872dd906084015b604051602081830303815290604052915060e01b6020820180516001600160e01b038381831617835250505050611b3e565b5f7f000000000000000000000000000000000000000000000000000000000000000090505f61116a84600854611087565b90505f611177828661215d565b60408051878152602081018590529081018290529091507f303b24fe798ee69a4dadbfac900305c1294c1727758ab98d478e683d8f2e4eee9060600160405180910390a15f821180156111d45750600a546001600160a01b031615155b156111f357600a546111f3906001600160a01b03858116911684611baa565b5f5b60065481101561151c575f6006828154811061121357611213612170565b5f91825260208083206040805180820190915260029093020180546001600160a01b0316835260010154908201819052909250612710906112549086612275565b61125e91906122a0565b8251602080850151604080518881526001600160a01b039094169284019290925290820152606081018290529091507f2b3e9467601137db21717ab742c7ec3b3d1056925bb334c77d8ce3be2a968c299060800160405180910390a1838111156112db57604051630336d63960e11b815260040160405180910390fd5b815160405163095ea7b360e01b81526001600160a01b039182166004820152602481018390529087169063095ea7b3906044016020604051808303815f875af115801561132a573d5f5f3e3d5ffd5b505050506040513d601f19601f8201168201806040525081019061134e91906122b3565b5081516001600160a01b031673a238dd80c259a72e81d7e4664a9801593f98d1c419016113e657815160405163617ba03760e01b81526001600160a01b038881166004830152602482018490523060448301525f60648301529091169063617ba037906084015f604051808303815f87803b1580156113cb575f5ffd5b505af11580156113dd573d5f5f3e3d5ffd5b5050505061149c565b81516001600160a01b03167350c749ae210d3977adc824ae11f3c7fd10c871e81901611483578151604051636e553f6560e01b8152600481018390523060248201526001600160a01b0390911690636e553f65906044016020604051808303815f875af1158015611459573d5f5f3e3d5ffd5b505050506040513d601f19601f8201168201806040525081019061147d91906120ce565b5061149c565b60405163502900a160e11b815260040160405180910390fd5b815160405163095ea7b360e01b81526001600160a01b0391821660048201525f60248201529087169063095ea7b3906044016020604051808303815f875af11580156114ea573d5f5f3e3d5ffd5b505050506040513d601f19601f8201168201806040525081019061150e91906122b3565b5050508060010190506111f5565b506115278685611bdb565b60408051868152602081018690526001600160a01b0388169133917fdcbc1c05240f31ff3ad067ef1ee35ce4997762752e3a095284754544f4c709d7910160405180910390a3505050505050565b600580546001600160a01b03838116610100818102610100600160a81b031985161790945560405193909204169182907f8be0079c531659141344cd1fd0a4f28419497f9722a3daafe3b4186f6b6457e0905f90a35050565b6115d66110ae565b6005805460ff191660011790557f62e78cea01bee320cd4e420270b5ea74000d11b0c9f74754ebdbfc544b05a25861106a3390565b5f6106ca826001610eef565b5f7f000000000000000000000000000000000000000000000000000000000000000090505f61164884600954610f39565b90505f611655828661215d565b90505f5b6006548110156117f8575f6006828154811061167757611677612170565b5f91825260208083206040805180820190915260029093020180546001600160a01b0316835260010154908201819052909250612710906116b89086612275565b6116c291906122a0565b9050838111156116e557604051630336d63960e11b815260040160405180910390fd5b81516001600160a01b031673a238dd80c259a72e81d7e4664a9801593f98d1c4190161178b578151604051631a4ca37b60e21b81526001600160a01b03888116600483015260248201849052306044830152909116906369328dec906064015b6020604051808303815f875af1158015611761573d5f5f3e3d5ffd5b505050506040513d601f19601f8201168201806040525081019061178591906120ce565b506117ee565b81516001600160a01b03167350c749ae210d3977adc824ae11f3c7fd10c871e81901611483578151604051635d043b2960e11b815260048101839052306024820181905260448201526001600160a01b039091169063ba08765290606401611745565b5050600101611659565b505f821180156118125750600a546001600160a01b031615155b1561183157600a54611831906001600160a01b03858116911684611baa565b801561184b5761184b6001600160a01b0384168883611baa565b6118558685611c13565b60408051868152602081018690526001600160a01b0380891692908a169133917ffbde797d201c681b91056529119e0b02407c7bb96a4a2c75c01fc9667232c8db910160405180910390a450505050505050565b5f6107096118b882600a612267565b6002546118c59190612131565b6118cd610543565b610f1e906001612131565b5f6119056118e583611c47565b801561190057505f84806118fb576118fb61228c565b868809115b151590565b611910868686611c73565b61191a9190612131565b95945050505050565b6001600160a01b03841661194c5760405163e602df0560e01b81525f6004820152602401610982565b6001600160a01b03831661197557604051634a1406b160e11b81525f6004820152602401610982565b6001600160a01b038085165f9081526001602090815260408083209387168352929052208290558015610fd257826001600160a01b0316846001600160a01b03167f8c5be1e5ebec7d5bd14f71427d1e84f3dd0314c0f7b2291e5b200ac8c7c3b925846040516119e791815260200190565b60405180910390a350505050565b6001600160a01b038316611a1f578060025f828254611a149190612131565b90915550611a8f9050565b6001600160a01b0383165f9081526020819052604090205481811015611a715760405163391434e360e21b81526001600160a01b03851660048201526024810182905260448101839052606401610982565b6001600160a01b0384165f9081526020819052604090209082900390555b6001600160a01b038216611aab57600280548290039055611ac9565b6001600160a01b0382165f9081526020819052604090208054820190555b816001600160a01b0316836001600160a01b03167fddf252ad1be2c89b69c2b068fc378daa952ba7f163c4a11628f55a4df523b3ef83604051611b0e91815260200190565b60405180910390a3505050565b60055460ff166109eb57604051638dfc202b60e01b815260040160405180910390fd5b5f5f60205f8451602086015f885af180611b5d576040513d5f823e3d81fd5b50505f513d91508115611b74578060011415611b81565b6001600160a01b0384163b155b15610fd257604051635274afe760e01b81526001600160a01b0385166004820152602401610982565b6040516001600160a01b03838116602483015260448201839052610f3491859182169063a9059cbb90606401611107565b6001600160a01b038216611c045760405163ec442f0560e01b81525f6004820152602401610982565b611c0f5f83836119f5565b5050565b6001600160a01b038216611c3c57604051634b637e8f60e11b81525f6004820152602401610982565b611c0f825f836119f5565b5f6002826003811115611c5c57611c5c6122d2565b611c6691906122e6565b60ff166001149050919050565b5f5f5f611c808686611d23565b91509150815f03611ca457838181611c9a57611c9a61228c565b0492505050610709565b818411611cbb57611cbb6003851502601118611d3f565b5f848688095f868103871696879004966002600389028118808a02820302808a02820302808a02820302808a02820302808a02820302808a02909103029181900381900460010185841190960395909502919093039390930492909217029150509392505050565b5f805f1983850993909202808410938190039390930393915050565b634e487b715f52806020526024601cfd5b5080545f8255600202905f5260205f2090810190610eb991905b80821115611d8e5780546001600160a01b03191681555f6001820155600201611d6a565b5090565b5f60208284031215611da2575f5ffd5b5035919050565b602081525f82518060208401528060208501604085015e5f604082850101526040601f19601f83011684010191505092915050565b80356001600160a01b0381168114611df4575f5ffd5b919050565b5f5f60408385031215611e0a575f5ffd5b611e1383611dde565b946020939093013593505050565b5f5f5f60608486031215611e33575f5ffd5b611e3c84611dde565b9250611e4a60208501611dde565b929592945050506040919091013590565b5f60208284031215611e6b575f5ffd5b61070982611dde565b604080825283519082018190525f9060208501906060840190835b81811015611eb65783516001600160a01b0316835260209384019390920191600101611e8f565b5050838103602080860191909152855180835291810192508501905f5b81811015611ef1578251845260209384019390920191600101611ed3565b50919695505050505050565b5f5f60408385031215611f0e575f5ffd5b82359150611f1e60208401611dde565b90509250929050565b634e487b7160e01b5f52604160045260245ffd5b6040805190810167ffffffffffffffff81118282101715611f5e57611f5e611f27565b60405290565b604051601f8201601f1916810167ffffffffffffffff81118282101715611f8d57611f8d611f27565b604052919050565b5f60208284031215611fa5575f5ffd5b813567ffffffffffffffff811115611fbb575f5ffd5b8201601f81018413611fcb575f5ffd5b803567ffffffffffffffff811115611fe557611fe5611f27565b611ff460208260051b01611f64565b8082825260208201915060208360061b850101925086831115612015575f5ffd5b6020840193505b828410156120635760408488031215612033575f5ffd5b61203b611f3b565b61204485611dde565b815260208581013581830152908352604090940193919091019061201c565b9695505050505050565b5f5f5f6060848603121561207f575f5ffd5b8335925061208f60208501611dde565b915061209d60408501611dde565b90509250925092565b5f5f604083850312156120b7575f5ffd5b6120c083611dde565b9150611f1e60208401611dde565b5f602082840312156120de575f5ffd5b5051919050565b600181811c908216806120f957607f821691505b60208210810361211757634e487b7160e01b5f52602260045260245ffd5b50919050565b634e487b7160e01b5f52601160045260245ffd5b808201808211156106ca576106ca61211d565b60ff81811683821601908111156106ca576106ca61211d565b818103818111156106ca576106ca61211d565b634e487b7160e01b5f52603260045260245ffd5b6001815b60018411156121bf578085048111156121a3576121a361211d565b60018416156121b157908102905b60019390931c928002612188565b935093915050565b5f826121d5575060016106ca565b816121e157505f6106ca565b81600181146121f757600281146122015761221d565b60019150506106ca565b60ff8411156122125761221261211d565b50506001821b6106ca565b5060208310610133831016604e8410600b8410161715612240575081810a6106ca565b61224c5f198484612184565b805f190482111561225f5761225f61211d565b029392505050565b5f61070960ff8416836121c7565b80820281158282048414176106ca576106ca61211d565b634e487b7160e01b5f52601260045260245ffd5b5f826122ae576122ae61228c565b500490565b5f602082840312156122c3575f5ffd5b81518015158114610709575f5ffd5b634e487b7160e01b5f52602160045260245ffd5b5f60ff8316806122f8576122f861228c565b8060ff8416069150509291505056fea2646970667358221220981cdadac11da36c646db2b491a83b81f61b3b0d357577df4e815fe952bebb1264736f6c634300081c0033",
  "linkReferences": {},
  "deployedLinkReferences": {},
  "immutableReferences": {
    "1160": [
      {
        "length": 32,
        "start": 834
      },
      {
        "length": 32,
        "start": 1350
      },
      {
        "length": 32,
        "start": 2462
      },
      {
        "length": 32,
        "start": 2629
      },
      {
        "length": 32,
        "start": 4412
      },
      {
        "length": 32,
        "start": 5658
      }
    ],
    "1162": [
      {
        "length": 32,
        "start": 1956
      }
    ]
  },
  "inputSourceName": "project/contracts/vaults/Safe.sol",
  "buildInfoId": "solc-0_8_28-50f2fc916470576eff6df62d13d5dd8f67341dc9"
}