{
  "_format": "hh3-artifact-1",
  "contractName": "Safe",
  "sourceName": "contracts/vaults/Safe.sol",
  "abi": [
    {
      "inputs": [
        {
          "internalType": "contract ERC20",
          "name": "_asset",
          "type": "address"
        },
        {
          "internalType": "address",
          "name": "_owner",
          "type": "address"
        },
        {
          "components": [
            {
              "internalType": "address",
              "name": "protocol",
              "type": "address"
            },
            {
              "internalType": "uint8",
              "name": "kind",
              "type": "uint8"
            },
            {
              "internalType": "uint256",
              "name": "ratio",
              "type": "uint256"
            }
          ],
          "internalType": "struct Safe.Allocation[]",
          "name": "_allocations",
          "type": "tuple[]"
        },
        {
          "internalType": "address",
          "name": "_feeRecipient",
          "type": "address"
        }
      ],
      "stateMutability": "nonpayable",
      "type": "constructor"
    },
    {
      "inputs": [
        {
          "internalType": "address",
          "name": "spender",
          "type": "address"
        },
        {
          "internalType": "uint256",
          "name": "allowance",
          "type": "uint256"
        },
        {
          "internalType": "uint256",
          "name": "needed",
          "type": "uint256"
        }
      ],
      "name": "ERC20InsufficientAllowance",
      "type": "error"
    },
    {
      "inputs": [
        {
          "internalType": "address",
          "name": "sender",
          "type": "address"
        },
        {
          "internalType": "uint256",
          "name": "balance",
          "type": "uint256"
        },
        {
          "internalType": "uint256",
          "name": "needed",
          "type": "uint256"
        }
      ],
      "name": "ERC20InsufficientBalance",
      "type": "error"
    },
    {
      "inputs": [
        {
          "internalType": "address",
          "name": "approver",
          "type": "address"
        }
      ],
      "name": "ERC20InvalidApprover",
      "type": "error"
    },
    {
      "inputs": [
        {
          "internalType": "address",
          "name": "receiver",
          "type": "address"
        }
      ],
      "name": "ERC20InvalidReceiver",
      "type": "error"
    },
    {
      "inputs": [
        {
          "internalType": "address",
          "name": "sender",
          "type": "address"
        }
      ],
      "name": "ERC20InvalidSender",
      "type": "error"
    },
    {
      "inputs": [
        {
          "internalType": "address",
          "name": "spender",
          "type": "address"
        }
      ],
      "name": "ERC20InvalidSpender",
      "type": "error"
    },
    {
      "inputs": [
        {
          "internalType": "address",
          "name": "receiver",
          "type": "address"
        },
        {
          "internalType": "uint256",
          "name": "assets",
          "type": "uint256"
        },
        {
          "internalType": "uint256",
          "name": "max",
          "type": "uint256"
        }
      ],
      "name": "ERC4626ExceededMaxDeposit",
      "type": "error"
    },
    {
      "inputs": [
        {
          "internalType": "address",
          "name": "receiver",
          "type": "address"
        },
        {
          "internalType": "uint256",
          "name": "shares",
          "type": "uint256"
        },
        {
          "internalType": "uint256",
          "name": "max",
          "type": "uint256"
        }
      ],
      "name": "ERC4626ExceededMaxMint",
      "type": "error"
    },
    {
      "inputs": [
        {
          "internalType": "address",
          "name": "owner",
          "type": "address"
        },
        {
          "internalType": "uint256",
          "name": "shares",
          "type": "uint256"
        },
        {
          "internalType": "uint256",
          "name": "max",
          "type": "uint256"
        }
      ],
      "name": "ERC4626ExceededMaxRedeem",
      "type": "error"
    },
    {
      "inputs": [
        {
          "internalType": "address",
          "name": "owner",
          "type": "address"
        },
        {
          "internalType": "uint256",
          "name": "assets",
          "type": "uint256"
        },
        {
          "internalType": "uint256",
          "name": "max",
          "type": "uint256"
        }
      ],
      "name": "ERC4626ExceededMaxWithdraw",
      "type": "error"
    },
    {
      "inputs": [],
      "name": "EnforcedPause",
      "type": "error"
    },
    {
      "inputs": [],
      "name": "ExpectedPause",
      "type": "error"
    },
    {
      "inputs": [],
      "name": "FeeTooHigh",
      "type": "error"
    },
    {
      "inputs": [],
      "name": "InvalidAllocationRatio",
      "type": "error"
    },
    {
      "inputs": [],
      "name": "InvalidProtocolOrAsset",
      "type": "error"
    },
    {
      "inputs": [],
      "name": "NoAllocationsDefined",
      "type": "error"
    },
    {
      "inputs": [
        {
          "internalType": "address",
          "name": "owner",
          "type": "address"
        }
      ],
      "name": "OwnableInvalidOwner",
      "type": "error"
    },
    {
      "inputs": [
        {
          "internalType": "address",
          "name": "account",
          "type": "address"
        }
      ],
      "name": "OwnableUnauthorizedAccount",
      "type": "error"
    },
    {
      "inputs": [
        {
          "internalType": "address",
          "name": "token",
          "type": "address"
        }
      ],
      "name": "SafeERC20FailedOperation",
      "type": "error"
    },
    {
      "inputs": [],
      "name": "VaultIsPaused",
      "type": "error"
    },
    {
      "anonymous": false,
      "inputs": [
        {
          "indexed": true,
          "internalType": "address",
          "name": "protocol",
          "type": "address"
        },
        {
          "indexed": false,
          "internalType": "uint256",
          "name": "newRatio",
          "type": "uint256"
        }
      ],
      "name": "AllocationUpdated",
      "type": "event"
    },
    {
      "anonymous": false,
      "inputs": [
        {
          "indexed": true,
          "internalType": "address",
          "name": "owner",
          "type": "address"
        },
        {
          "indexed": true,
          "internalType": "address",
          "name": "spender",
          "type": "address"
        },
        {
          "indexed": false,
          "internalType": "uint256",
          "name": "value",
          "type": "uint256"
        }
      ],
      "name": "Approval",
      "type": "event"
    },
    {
      "anonymous": false,
      "inputs": [
        {
          "indexed": true,
          "internalType": "address",
          "name": "sender",
          "type": "address"
        },
        {
          "indexed": true,
          "internalType": "address",
          "name": "owner",
          "type": "address"
        },
        {
          "indexed": false,
          "internalType": "uint256",
          "name": "assets",
          "type": "uint256"
        },
        {
          "indexed": false,
          "internalType": "uint256",
          "name": "shares",
          "type": "uint256"
        }
      ],
      "name": "Deposit",
      "type": "event"
    },
    {
      "anonymous": false,
      "inputs": [
        {
          "indexed": true,
          "internalType": "address",
          "name": "caller",
          "type": "address"
        }
      ],
      "name": "EmergencyPaused",
      "type": "event"
    },
    {
      "anonymous": false,
      "inputs": [
        {
          "indexed": true,
          "internalType": "address",
          "name": "caller",
          "type": "address"
        }
      ],
      "name": "EmergencyUnpaused",
      "type": "event"
    },
    {
      "anonymous": false,
      "inputs": [
        {
          "indexed": true,
          "internalType": "uint256",
          "name": "newFeeBP",
          "type": "uint256"
        }
      ],
      "name": "EntryFeeUpdated",
      "type": "event"
    },
    {
      "anonymous": false,
      "inputs": [
        {
          "indexed": true,
          "internalType": "uint256",
          "name": "newFeeBP",
          "type": "uint256"
        }
      ],
      "name": "ExitFeeUpdated",
      "type": "event"
    },
    {
      "anonymous": false,
      "inputs": [
        {
          "indexed": true,
          "internalType": "address",
          "name": "previousOwner",
          "type": "address"
        },
        {
          "indexed": true,
          "internalType": "address",
          "name": "newOwner",
          "type": "address"
        }
      ],
      "name": "OwnershipTransferred",
      "type": "event"
    },
    {
      "anonymous": false,
      "inputs": [
        {
          "indexed": false,
          "internalType": "address",
          "name": "account",
          "type": "address"
        }
      ],
      "name": "Paused",
      "type": "event"
    },
    {
      "anonymous": false,
      "inputs": [
        {
          "indexed": true,
          "internalType": "address",
          "name": "from",
          "type": "address"
        },
        {
          "indexed": true,
          "internalType": "address",
          "name": "to",
          "type": "address"
        },
        {
          "indexed": false,
          "internalType": "uint256",
          "name": "value",
          "type": "uint256"
        }
      ],
      "name": "Transfer",
      "type": "event"
    },
    {
      "anonymous": false,
      "inputs": [
        {
          "indexed": false,
          "internalType": "address",
          "name": "account",
          "type": "address"
        }
      ],
      "name": "Unpaused",
      "type": "event"
    },
    {
      "anonymous": false,
      "inputs": [
        {
          "indexed": true,
          "internalType": "address",
          "name": "sender",
          "type": "address"
        },
        {
          "indexed": true,
          "internalType": "address",
          "name": "receiver",
          "type": "address"
        },
        {
          "indexed": true,
          "internalType": "address",
          "name": "owner",
          "type": "address"
        },
        {
          "indexed": false,
          "internalType": "uint256",
          "name": "assets",
          "type": "uint256"
        },
        {
          "indexed": false,
          "internalType": "uint256",
          "name": "shares",
          "type": "uint256"
        }
      ],
      "name": "Withdraw",
      "type": "event"
    },
    {
      "inputs": [
        {
          "internalType": "address",
          "name": "owner",
          "type": "address"
        },
        {
          "internalType": "address",
          "name": "spender",
          "type": "address"
        }
      ],
      "name": "allowance",
      "outputs": [
        {
          "internalType": "uint256",
          "name": "",
          "type": "uint256"
        }
      ],
      "stateMutability": "view",
      "type": "function"
    },
    {
      "inputs": [
        {
          "internalType": "address",
          "name": "spender",
          "type": "address"
        },
        {
          "internalType": "uint256",
          "name": "value",
          "type": "uint256"
        }
      ],
      "name": "approve",
      "outputs": [
        {
          "internalType": "bool",
          "name": "",
          "type": "bool"
        }
      ],
      "stateMutability": "nonpayable",
      "type": "function"
    },
    {
      "inputs": [],
      "name": "asset",
      "outputs": [
        {
          "internalType": "address",
          "name": "",
          "type": "address"
        }
      ],
      "stateMutability": "view",
      "type": "function"
    },
    {
      "inputs": [
        {
          "internalType": "address",
          "name": "account",
          "type": "address"
        }
      ],
      "name": "balanceOf",
      "outputs": [
        {
          "internalType": "uint256",
          "name": "",
          "type": "uint256"
        }
      ],
      "stateMutability": "view",
      "type": "function"
    },
    {
      "inputs": [
        {
          "internalType": "uint256",
          "name": "shares",
          "type": "uint256"
        }
      ],
      "name": "convertToAssets",
      "outputs": [
        {
          "internalType": "uint256",
          "name": "",
          "type": "uint256"
        }
      ],
      "stateMutability": "view",
      "type": "function"
    },
    {
      "inputs": [
        {
          "internalType": "uint256",
          "name": "assets",
          "type": "uint256"
        }
      ],
      "name": "convertToShares",
      "outputs": [
        {
          "internalType": "uint256",
          "name": "",
          "type": "uint256"
        }
      ],
      "stateMutability": "view",
      "type": "function"
    },
    {
      "inputs": [],
      "name": "decimals",
      "outputs": [
        {
          "internalType": "uint8",
          "name": "",
          "type": "uint8"
        }
      ],
      "stateMutability": "view",
      "type": "function"
    },
    {
      "inputs": [
        {
          "internalType": "uint256",
          "name": "assets",
          "type": "uint256"
        },
        {
          "internalType": "address",
          "name": "receiver",
          "type": "address"
        }
      ],
      "name": "deposit",
      "outputs": [
        {
          "internalType": "uint256",
          "name": "shares",
          "type": "uint256"
        }
      ],
      "stateMutability": "nonpayable",
      "type": "function"
    },
    {
      "inputs": [],
      "name": "entryFeeBP",
      "outputs": [
        {
          "internalType": "uint256",
          "name": "",
          "type": "uint256"
        }
      ],
      "stateMutability": "view",
      "type": "function"
    },
    {
      "inputs": [],
      "name": "exitFeeBP",
      "outputs": [
        {
          "internalType": "uint256",
          "name": "",
          "type": "uint256"
        }
      ],
      "stateMutability": "view",
      "type": "function"
    },
    {
      "inputs": [],
      "name": "feeRecipient",
      "outputs": [
        {
          "internalType": "address",
          "name": "",
          "type": "address"
        }
      ],
      "stateMutability": "view",
      "type": "function"
    },
    {
      "inputs": [],
      "name": "getAPY",
      "outputs": [
        {
          "internalType": "uint256",
          "name": "",
          "type": "uint256"
        }
      ],
      "stateMutability": "pure",
      "type": "function"
    },
    {
      "inputs": [],
      "name": "getAllocations",
      "outputs": [
        {
          "internalType": "address[]",
          "name": "_tokens",
          "type": "address[]"
        },
        {
          "internalType": "uint256[]",
          "name": "_ratios",
          "type": "uint256[]"
        }
      ],
      "stateMutability": "view",
      "type": "function"
    },
    {
      "inputs": [],
      "name": "isPaused",
      "outputs": [
        {
          "internalType": "bool",
          "name": "",
          "type": "bool"
        }
      ],
      "stateMutability": "view",
      "type": "function"
    },
    {
      "inputs": [
        {
          "internalType": "address",
          "name": "",
          "type": "address"
        }
      ],
      "name": "maxDeposit",
      "outputs": [
        {
          "internalType": "uint256",
          "name": "",
          "type": "uint256"
        }
      ],
      "stateMutability": "view",
      "type": "function"
    },
    {
      "inputs": [
        {
          "internalType": "address",
          "name": "",
          "type": "address"
        }
      ],
      "name": "maxMint",
      "outputs": [
        {
          "internalType": "uint256",
          "name": "",
          "type": "uint256"
        }
      ],
      "stateMutability": "view",
      "type": "function"
    },
    {
      "inputs": [
        {
          "internalType": "address",
          "name": "owner",
          "type": "address"
        }
      ],
      "name": "maxRedeem",
      "outputs": [
        {
          "internalType": "uint256",
          "name": "",
          "type": "uint256"
        }
      ],
      "stateMutability": "view",
      "type": "function"
    },
    {
      "inputs": [
        {
          "internalType": "address",
          "name": "owner",
          "type": "address"
        }
      ],
      "name": "maxWithdraw",
      "outputs": [
        {
          "internalType": "uint256",
          "name": "",
          "type": "uint256"
        }
      ],
      "stateMutability": "view",
      "type": "function"
    },
    {
      "inputs": [
        {
          "internalType": "uint256",
          "name": "shares",
          "type": "uint256"
        },
        {
          "internalType": "address",
          "name": "receiver",
          "type": "address"
        }
      ],
      "name": "mint",
      "outputs": [
        {
          "internalType": "uint256",
          "name": "assets",
          "type": "uint256"
        }
      ],
      "stateMutability": "nonpayable",
      "type": "function"
    },
    {
      "inputs": [],
      "name": "name",
      "outputs": [
        {
          "internalType": "string",
          "name": "",
          "type": "string"
        }
      ],
      "stateMutability": "view",
      "type": "function"
    },
    {
      "inputs": [],
      "name": "owner",
      "outputs": [
        {
          "internalType": "address",
          "name": "",
          "type": "address"
        }
      ],
      "stateMutability": "view",
      "type": "function"
    },
    {
      "inputs": [],
      "name": "pause",
      "outputs": [],
      "stateMutability": "nonpayable",
      "type": "function"
    },
    {
      "inputs": [],
      "name": "paused",
      "outputs": [
        {
          "internalType": "bool",
          "name": "",
          "type": "bool"
        }
      ],
      "stateMutability": "view",
      "type": "function"
    },
    {
      "inputs": [
        {
          "internalType": "uint256",
          "name": "_assets",
          "type": "uint256"
        }
      ],
      "name": "previewDeposit",
      "outputs": [
        {
          "internalType": "uint256",
          "name": "",
          "type": "uint256"
        }
      ],
      "stateMutability": "view",
      "type": "function"
    },
    {
      "inputs": [
        {
          "internalType": "uint256",
          "name": "_shares",
          "type": "uint256"
        }
      ],
      "name": "previewMint",
      "outputs": [
        {
          "internalType": "uint256",
          "name": "",
          "type": "uint256"
        }
      ],
      "stateMutability": "view",
      "type": "function"
    },
    {
      "inputs": [
        {
          "internalType": "uint256",
          "name": "_shares",
          "type": "uint256"
        }
      ],
      "name": "previewRedeem",
      "outputs": [
        {
          "internalType": "uint256",
          "name": "",
          "type": "uint256"
        }
      ],
      "stateMutability": "view",
      "type": "function"
    },
    {
      "inputs": [
        {
          "internalType": "uint256",
          "name": "_assets",
          "type": "uint256"
        }
      ],
      "name": "previewWithdraw",
      "outputs": [
        {
          "internalType": "uint256",
          "name": "",
          "type": "uint256"
        }
      ],
      "stateMutability": "view",
      "type": "function"
    },
    {
      "inputs": [
        {
          "internalType": "uint256",
          "name": "shares",
          "type": "uint256"
        },
        {
          "internalType": "address",
          "name": "receiver",
          "type": "address"
        },
        {
          "internalType": "address",
          "name": "owner",
          "type": "address"
        }
      ],
      "name": "redeem",
      "outputs": [
        {
          "internalType": "uint256",
          "name": "assets",
          "type": "uint256"
        }
      ],
      "stateMutability": "nonpayable",
      "type": "function"
    },
    {
      "inputs": [],
      "name": "renounceOwnership",
      "outputs": [],
      "stateMutability": "nonpayable",
      "type": "function"
    },
    {
      "inputs": [
        {
          "internalType": "uint256",
          "name": "_newAPY",
          "type": "uint256"
        }
      ],
      "name": "setAPY",
      "outputs": [],
      "stateMutability": "nonpayable",
      "type": "function"
    },
    {
      "inputs": [
        {
          "components": [
            {
              "internalType": "address",
              "name": "protocol",
              "type": "address"
            },
            {
              "internalType": "uint8",
              "name": "kind",
              "type": "uint8"
            },
            {
              "internalType": "uint256",
              "name": "ratio",
              "type": "uint256"
            }
          ],
          "internalType": "struct Safe.Allocation[]",
          "name": "_newAllocations",
          "type": "tuple[]"
        }
      ],
      "name": "setAllocations",
      "outputs": [],
      "stateMutability": "nonpayable",
      "type": "function"
    },
    {
      "inputs": [
        {
          "internalType": "uint256",
          "name": "_newFeeBP",
          "type": "uint256"
        }
      ],
      "name": "setEntryFeeBP",
      "outputs": [],
      "stateMutability": "nonpayable",
      "type": "function"
    },
    {
      "inputs": [
        {
          "internalType": "uint256",
          "name": "_newFeeBP",
          "type": "uint256"
        }
      ],
      "name": "setExitFeeBP",
      "outputs": [],
      "stateMutability": "nonpayable",
      "type": "function"
    },
    {
      "inputs": [],
      "name": "symbol",
      "outputs": [
        {
          "internalType": "string",
          "name": "",
          "type": "string"
        }
      ],
      "stateMutability": "view",
      "type": "function"
    },
    {
      "inputs": [],
      "name": "totalAssets",
      "outputs": [
        {
          "internalType": "uint256",
          "name": "",
          "type": "uint256"
        }
      ],
      "stateMutability": "view",
      "type": "function"
    },
    {
      "inputs": [],
      "name": "totalSupply",
      "outputs": [
        {
          "internalType": "uint256",
          "name": "",
          "type": "uint256"
        }
      ],
      "stateMutability": "view",
      "type": "function"
    },
    {
      "inputs": [
        {
          "internalType": "address",
          "name": "to",
          "type": "address"
        },
        {
          "internalType": "uint256",
          "name": "value",
          "type": "uint256"
        }
      ],
      "name": "transfer",
      "outputs": [
        {
          "internalType": "bool",
          "name": "",
          "type": "bool"
        }
      ],
      "stateMutability": "nonpayable",
      "type": "function"
    },
    {
      "inputs": [
        {
          "internalType": "address",
          "name": "from",
          "type": "address"
        },
        {
          "internalType": "address",
          "name": "to",
          "type": "address"
        },
        {
          "internalType": "uint256",
          "name": "value",
          "type": "uint256"
        }
      ],
      "name": "transferFrom",
      "outputs": [
        {
          "internalType": "bool",
          "name": "",
          "type": "bool"
        }
      ],
      "stateMutability": "nonpayable",
      "type": "function"
    },
    {
      "inputs": [
        {
          "internalType": "address",
          "name": "newOwner",
          "type": "address"
        }
      ],
      "name": "transferOwnership",
      "outputs": [],
      "stateMutability": "nonpayable",
      "type": "function"
    },
    {
      "inputs": [],
      "name": "unpause",
      "outputs": [],
      "stateMutability": "nonpayable",
      "type": "function"
    },
    {
      "inputs": [
        {
          "internalType": "uint256",
          "name": "assets",
          "type": "uint256"
        },
        {
          "internalType": "address",
          "name": "receiver",
          "type": "address"
        },
        {
          "internalType": "address",
          "name": "owner",
          "type": "address"
        }
      ],
      "name": "withdraw",
      "outputs": [
        {
          "internalType": "uint256",
          "name": "shares",
          "type": "uint256"
        }
      ],
      "stateMutability": "nonpayable",
      "type": "function"
    }
  ],
  "bytecode": "0x60c060405260646008556032600955348015610019575f5ffd5b506040516128d53803806128d5833981016040819052610038916103eb565b82846040518060400160405280600f81526020016e0436c61726974792053616665204c5608c1b81525060405180604001604052806005815260200164635341464560d81b815250816003908161008f919061059b565b50600461009c828261059b565b5050505f5f6100b08361022960201b60201c565b91509150816100c05760126100c2565b805b60ff1660a05250506001600160a01b0390811660805281166100fd57604051631e4fbdf760e01b81525f600482015260240160405180910390fd5b610106816102ff565b505f8251116101285760405163ed2c26ef60e01b815260040160405180910390fd5b5f805b83518110156101d957600684828151811061014857610148610655565b6020908102919091018101518254600181810185555f94855293839020825160029092020180549383015160ff16600160a01b026001600160a81b03199094166001600160a01b03909216919091179290921782556040015191015583518490829081106101b8576101b8610655565b602002602001015160400151826101cf9190610669565b915060010161012b565b5080612710146101fc57604051630336d63960e11b815260040160405180910390fd5b50600a80546001600160a01b0319166001600160a01b039290921691909117905550505f600b55506106bb565b60408051600481526024810182526020810180516001600160e01b031663313ce56760e01b17905290515f918291829182916001600160a01b0387169161026f9161068e565b5f60405180830381855afa9150503d805f81146102a7576040519150601f19603f3d011682016040523d82523d5f602084013e6102ac565b606091505b50915091508180156102c057506020815110155b156102f3575f818060200190518101906102da91906106a4565b905060ff81116102f1576001969095509350505050565b505b505f9485945092505050565b600580546001600160a01b03838116610100818102610100600160a81b031985161790945560405193909204169182907f8be0079c531659141344cd1fd0a4f28419497f9722a3daafe3b4186f6b6457e0905f90a35050565b6001600160a01b038116811461036c575f5ffd5b50565b805161037a81610358565b919050565b634e487b7160e01b5f52604160045260245ffd5b604051606081016001600160401b03811182821017156103b5576103b561037f565b60405290565b604051601f8201601f191681016001600160401b03811182821017156103e3576103e361037f565b604052919050565b5f5f5f5f608085870312156103fe575f5ffd5b845161040981610358565b602086015190945061041a81610358565b60408601519093506001600160401b03811115610435575f5ffd5b8501601f81018713610445575f5ffd5b80516001600160401b0381111561045e5761045e61037f565b61046d60208260051b016103bb565b8082825260208201915060206060840285010192508983111561048e575f5ffd5b6020840193505b828410156104fa576060848b0312156104ac575f5ffd5b6104b4610393565b84516104bf81610358565b8152602085015160ff811681146104d4575f5ffd5b602082810191909152604086810151908301529083526060909401939190910190610495565b945061050c925050506060860161036f565b905092959194509250565b600181811c9082168061052b57607f821691505b60208210810361054957634e487b7160e01b5f52602260045260245ffd5b50919050565b601f82111561059657805f5260205f20601f840160051c810160208510156105745750805b601f840160051c820191505b81811015610593575f8155600101610580565b50505b505050565b81516001600160401b038111156105b4576105b461037f565b6105c8816105c28454610517565b8461054f565b6020601f8211600181146105fa575f83156105e35750848201515b5f19600385901b1c1916600184901b178455610593565b5f84815260208120601f198516915b828110156106295787850151825560209485019460019092019101610609565b508482101561064657868401515f19600387901b60f8161c191681555b50505050600190811b01905550565b634e487b7160e01b5f52603260045260245ffd5b8082018082111561068857634e487b7160e01b5f52601160045260245ffd5b92915050565b5f82518060208501845e5f920191825250919050565b5f602082840312156106b4575f5ffd5b5051919050565b60805160a0516121d66106ff5f395f6107f801525f818161034201528181610547015281816109fa01528181610aa1015281816111fb015261164401526121d65ff3fe608060405234801561000f575f5ffd5b506004361061024a575f3560e01c80636e553f6511610140578063b460af94116100bf578063ce96cb7711610084578063ce96cb77146104dc578063d2cbf7ad146104ef578063d905777e146104f7578063dd62ed3e1461050a578063ef8b30f71461051d578063f2fde38b14610530575f5ffd5b8063b460af9414610490578063ba087652146104a3578063bd58a262146104b6578063c63d75b614610382578063c6e6f592146104c9575f5ffd5b806394bf804d1161010557806394bf804d1461044757806395d89b411461045a578063a9059cbb14610462578063b187bd2614610475578063b3d7f6b91461047d575f5ffd5b80636e553f65146103e657806370a08231146103f9578063715018a6146104215780638456cb59146104295780638da5cb5b14610431575f5ffd5b806324f45e67116101cc578063469048401161019157806346904840146103965780634cdad506146103a95780634f174f99146103bc5780635c975abb146103c557806365ed6e23146103d0575f5ffd5b806324f45e6714610313578063313ce5671461032657806338d52e0f146103405780633f4ba83a1461037a578063402d267d14610382575f5ffd5b80630a28a477116102125780630a28a477146102c95780631180f5cf146102dc57806318160ddd146102ef5780631f1fbcb9146102f757806323b872dd14610300575f5ffd5b806301e1d1141461024e57806304f29d591461026957806306fdde031461027e57806307a2d13a14610293578063095ea7b3146102a6575b5f5ffd5b610256610543565b6040519081526020015b60405180910390f35b61027c610277366004611c4c565b6105e4565b005b610286610641565b6040516102609190611c63565b6102566102a1366004611c4c565b6106d1565b6102b96102b4366004611cb3565b61070f565b6040519015158152602001610260565b6102566102d7366004611c4c565b610728565b61027c6102ea366004611c4c565b610763565b600254610256565b61025660085481565b6102b961030e366004611cdb565b6107c0565b61027c610321366004611c4c565b6107e3565b61032e6107f0565b60405160ff9091168152602001610260565b7f00000000000000000000000000000000000000000000000000000000000000005b6040516001600160a01b039091168152602001610260565b61027c610821565b610256610390366004611d15565b505f1990565b600a54610362906001600160a01b031681565b6102566103b7366004611c4c565b61085d565b61025660095481565b60055460ff166102b9565b6103d8610883565b604051610260929190611d2e565b6102566103f4366004611db7565b6109d0565b610256610407366004611d15565b6001600160a01b03165f9081526020819052604090205490565b61027c610a36565b61027c610a49565b60055461010090046001600160a01b0316610362565b610256610455366004611db7565b610a85565b610286610ad0565b6102b9610470366004611cb3565b610adf565b6102b9610aec565b61025661048b366004611c4c565b610af9565b61025661049e366004611de1565b610b1c565b6102566104b1366004611de1565b610c50565b61027c6104c4366004611e88565b610d62565b6102566104d7366004611c4c565b610ea3565b6102566104ea366004611d15565b610ede565b610190610256565b610256610505366004611d15565b610f31565b610256610518366004611f7c565b610f4e565b61025661052b366004611c4c565b610f78565b61027c61053e366004611d15565b610f93565b5f807f00000000000000000000000000000000000000000000000000000000000000006040516370a0823160e01b81523060048201526001600160a01b0391909116906370a0823190602401602060405180830381865afa1580156105aa573d5f5f3e3d5ffd5b505050506040513d601f19601f820116820180604052508101906105ce9190611fa4565b905080600b546105de9190611fcf565b91505090565b6105ec610fd0565b6103e881111561060f5760405163cd4e616760e01b815260040160405180910390fd5b600981905560405181907f859032f804ed5430b8e45b8150b2ba750fc74328fe3b00f4fc89d50198983b21905f90a250565b60606003805461065090611fe2565b80601f016020809104026020016040519081016040528092919081815260200182805461067c90611fe2565b80156106c75780601f1061069e576101008083540402835291602001916106c7565b820191905f5260205f20905b8154815290600101906020018083116106aa57829003601f168201915b5050505050905090565b5f5f6106dc60025490565b9050801561070657806106ed610543565b6106f7908561201a565b6107019190612031565b610708565b825b9392505050565b5f3361071c818585611003565b60019150505b92915050565b6009545f908161073a82612710612050565b6107466127108661201a565b6107509190612031565b905061075b81610ea3565b949350505050565b61076b610fd0565b6103e881111561078e5760405163cd4e616760e01b815260040160405180910390fd5b600881905560405181907f24a0b2e591795f2c27be52ff14a57d0a39ac957304305bc05e8b04be49e8fe15905f90a250565b5f336107cd858285611015565b6107d8858585611079565b506001949350505050565b6107eb610fd0565b600755565b5f61081c60097f0000000000000000000000000000000000000000000000000000000000000000612063565b905090565b610829610fd0565b6108316110d6565b60405133907ff5cbf596165cc457b2cd92e8d8450827ee314968160a5696402d75766fc52caf905f90a2565b5f5f610868836106d1565b90505f61087782600954611128565b905061075b8183612050565b60065460609081908067ffffffffffffffff8111156108a4576108a4611e1a565b6040519080825280602002602001820160405280156108cd578160200160208202803683370190505b5092508067ffffffffffffffff8111156108e9576108e9611e1a565b604051908082528060200260200182016040528015610912578160200160208202803683370190505b5091505f5b818110156109ca57600681815481106109325761093261207c565b5f91825260209091206002909102015484516001600160a01b03909116908590839081106109625761096261207c565b60200260200101906001600160a01b031690816001600160a01b031681525050600681815481106109955761099561207c565b905f5260205f209060020201600101548382815181106109b7576109b761207c565b6020908102919091010152600101610917565b50509091565b5f6109d961116d565b6109e7565b60405180910390fd5b6109f083610f78565b9050610a2b3330857f00000000000000000000000000000000000000000000000000000000000000005b6001600160a01b0316929190611191565b6107228284836111f8565b610a3e610fd0565b610a475f611598565b565b610a51610fd0565b610a596115f1565b60405133907fb8fad2fa0ed7a383e747c309ef2c4391d7b65592a48893e57ccc1fab70791456905f90a2565b5f610a8e61116d565b610a9783610af9565b9050610ac53330837f0000000000000000000000000000000000000000000000000000000000000000610a1a565b6107228282856111f8565b60606004805461065090611fe2565b5f3361071c818585611079565b5f61081c60055460ff1690565b5f5f610b04836106d1565b9050610b128160085461162e565b6107089082611fcf565b5f610b2561116d565b610b2e82610ede565b841115610b7d5760405162461bcd60e51b815260206004820152601f60248201527f455243343632363a207769746864726177206d6f7265207468616e206d61780060448201526064016109de565b610b8684610728565b9050336001600160a01b03831614610c13575f610ba38333610f4e565b90505f198114610c115781811015610bfd5760405162461bcd60e51b815260206004820152601f60248201527f455243343632363a20696e73756666696369656e7420616c6c6f77616e63650060448201526064016109de565b610c118333610c0c8585612050565b611003565b505b6009545f610c2382612710612050565b610c2f6127108861201a565b610c399190612031565b9050610c478585838661163f565b50509392505050565b5f610c5961116d565b610c6282610f31565b841115610cb15760405162461bcd60e51b815260206004820152601d60248201527f455243343632363a2072656465656d206d6f7265207468616e206d617800000060448201526064016109de565b610cba8461085d565b9050336001600160a01b03831614610d42575f610cd78333610f4e565b90505f198114610d405784811015610d315760405162461bcd60e51b815260206004820152601f60248201527f455243343632363a20696e73756666696369656e7420616c6c6f77616e63650060448201526064016109de565b610d408333610c0c8885612050565b505b5f610d4c856106d1565b9050610d5a8484838861163f565b509392505050565b610d6a610fd0565b5f815111610d8b5760405163ed2c26ef60e01b815260040160405180910390fd5b5f610d97600682611c0a565b5f5b8251811015610e47576006838281518110610db657610db661207c565b6020908102919091018101518254600181810185555f94855293839020825160029092020180549383015160ff16600160a01b026001600160a81b03199094166001600160a01b0390921691909117929092178255604001519101558251839082908110610e2657610e2661207c565b60200260200101516040015182610e3d9190611fcf565b9150600101610d99565b508061271014610e6a57604051630336d63960e11b815260040160405180910390fd5b6040515f808252907f183f2ce0b749ed46549cb16586af0c501abab8d242cc4b2076aec30d2dd9c4bc9060200160405180910390a25050565b5f5f610eae60025490565b90508015610ec857610ebe610543565b6106f7828561201a565b610ed46009600a612173565b610708908461201a565b6001600160a01b0381165f90815260208190526040812054805f03610f0557505f92915050565b5f610f0f826106d1565b90505f610f1e82600954611128565b610f289083612050565b95945050505050565b6001600160a01b0381165f90815260208190526040812054610722565b6001600160a01b039182165f90815260016020908152604080832093909416825291909152205490565b5f5f610f8683600854611128565b90505f6107508285612050565b610f9b610fd0565b6001600160a01b038116610fc457604051631e4fbdf760e01b81525f60048201526024016109de565b610fcd81611598565b50565b6005546001600160a01b03610100909104163314610a475760405163118cdaa760e01b81523360048201526024016109de565b61101083838360016118e6565b505050565b5f6110208484610f4e565b90505f19811015611073578181101561106557604051637dc7a0d960e11b81526001600160a01b038416600482015260248101829052604481018390526064016109de565b61107384848484035f6118e6565b50505050565b6001600160a01b0383166110a257604051634b637e8f60e11b81525f60048201526024016109de565b6001600160a01b0382166110cb5760405163ec442f0560e01b81525f60048201526024016109de565b6110108383836119b8565b6110de611ade565b6005805460ff191690557f5db9ee0a495bf2e6ff9c91a7834c1ba4fdd244a5e8aa4e537bd38aeae4b073aa335b6040516001600160a01b03909116815260200160405180910390a1565b5f61113561271083611fcf565b600161271084611145818861201a565b61114f9190611fcf565b6111599190611fcf565b6111639190612050565b6107089190612031565b60055460ff1615610a475760405163d93c066560e01b815260040160405180910390fd5b6040516001600160a01b0384811660248301528381166044830152606482018390526110739186918216906323b872dd906084015b604051602081830303815290604052915060e01b6020820180516001600160e01b038381831617835250505050611b01565b5f7f000000000000000000000000000000000000000000000000000000000000000090505f61122984600854611128565b90505f6112368286612050565b90505f821180156112515750600a546001600160a01b031615155b1561127057600a54611270906001600160a01b03858116911684611b6d565b5f5b600654811015611528575f600682815481106112905761129061207c565b5f918252602080832060408051606081018252600290940290910180546001600160a01b038116855260ff600160a01b9091041692840192909252600190910154908201819052909250612710906112e8908661201a565b6112f29190612031565b90508381111561131557604051630336d63960e11b815260040160405180910390fd5b815160405163095ea7b360e01b81526001600160a01b039182166004820152602481018390529087169063095ea7b3906044016020604051808303815f875af1158015611364573d5f5f3e3d5ffd5b505050506040513d601f19601f820116820180604052508101906113889190612181565b50816020015160ff1660010361140957815160405163617ba03760e01b81526001600160a01b038881166004830152602482018490523060448301525f60648301529091169063617ba037906084015f604051808303815f87803b1580156113ee575f5ffd5b505af1158015611400573d5f5f3e3d5ffd5b505050506114a8565b816020015160ff1660020361148f578151604051636e553f6560e01b8152600481018390523060248201526001600160a01b0390911690636e553f65906044016020604051808303815f875af1158015611465573d5f5f3e3d5ffd5b505050506040513d601f19601f820116820180604052508101906114899190611fa4565b506114a8565b60405163502900a160e11b815260040160405180910390fd5b815160405163095ea7b360e01b81526001600160a01b0391821660048201525f60248201529087169063095ea7b3906044016020604051808303815f875af11580156114f6573d5f5f3e3d5ffd5b505050506040513d601f19601f8201168201806040525081019061151a9190612181565b505050806001019050611272565b5080600b5f82825461153a9190611fcf565b9091555061154a90508685611b9e565b60408051868152602081018690526001600160a01b0388169133917fdcbc1c05240f31ff3ad067ef1ee35ce4997762752e3a095284754544f4c709d7910160405180910390a3505050505050565b600580546001600160a01b03838116610100818102610100600160a81b031985161790945560405193909204169182907f8be0079c531659141344cd1fd0a4f28419497f9722a3daafe3b4186f6b6457e0905f90a35050565b6115f961116d565b6005805460ff191660011790557f62e78cea01bee320cd4e420270b5ea74000d11b0c9f74754ebdbfc544b05a25861110b3390565b5f61271060018161114f858761201a565b600b547f0000000000000000000000000000000000000000000000000000000000000000905f9084116116725783611676565b600b545b90505f61168582600954611128565b90505f6116928284612050565b90505f5b60065481101561181e575f600682815481106116b4576116b461207c565b5f918252602080832060408051606081018252600290940290910180546001600160a01b038116855260ff600160a01b90910416928401929092526001909101549082018190529092506127109061170c908861201a565b6117169190612031565b90508581111561173957604051630336d63960e11b815260040160405180910390fd5b816020015160ff166001036117c8578151604051631a4ca37b60e21b81526001600160a01b03898116600483015260248201849052306044830152909116906369328dec906064015b6020604051808303815f875af115801561179e573d5f5f3e3d5ffd5b505050506040513d601f19601f820116820180604052508101906117c29190611fa4565b50611814565b816020015160ff1660020361148f578151604051635d043b2960e11b815260048101839052306024820181905260448201526001600160a01b039091169063ba08765290606401611782565b5050600101611696565b5082600b5f8282546118309190612050565b9091555050811580159061184e5750600a546001600160a01b031615155b1561186d57600a5461186d906001600160a01b03868116911684611b6d565b8015611887576118876001600160a01b0385168983611b6d565b6118918786611bd6565b60408051848152602081018790526001600160a01b03808a1692908b169133917ffbde797d201c681b91056529119e0b02407c7bb96a4a2c75c01fc9667232c8db910160405180910390a45050505050505050565b6001600160a01b03841661190f5760405163e602df0560e01b81525f60048201526024016109de565b6001600160a01b03831661193857604051634a1406b160e11b81525f60048201526024016109de565b6001600160a01b038085165f908152600160209081526040808320938716835292905220829055801561107357826001600160a01b0316846001600160a01b03167f8c5be1e5ebec7d5bd14f71427d1e84f3dd0314c0f7b2291e5b200ac8c7c3b925846040516119aa91815260200190565b60405180910390a350505050565b6001600160a01b0383166119e2578060025f8282546119d79190611fcf565b90915550611a529050565b6001600160a01b0383165f9081526020819052604090205481811015611a345760405163391434e360e21b81526001600160a01b038516600482015260248101829052604481018390526064016109de565b6001600160a01b0384165f9081526020819052604090209082900390555b6001600160a01b038216611a6e57600280548290039055611a8c565b6001600160a01b0382165f9081526020819052604090208054820190555b816001600160a01b0316836001600160a01b03167fddf252ad1be2c89b69c2b068fc378daa952ba7f163c4a11628f55a4df523b3ef83604051611ad191815260200190565b60405180910390a3505050565b60055460ff16610a4757604051638dfc202b60e01b815260040160405180910390fd5b5f5f60205f8451602086015f885af180611b20576040513d5f823e3d81fd5b50505f513d91508115611b37578060011415611b44565b6001600160a01b0384163b155b1561107357604051635274afe760e01b81526001600160a01b03851660048201526024016109de565b6040516001600160a01b0383811660248301526044820183905261101091859182169063a9059cbb906064016111c6565b6001600160a01b038216611bc75760405163ec442f0560e01b81525f60048201526024016109de565b611bd25f83836119b8565b5050565b6001600160a01b038216611bff57604051634b637e8f60e11b81525f60048201526024016109de565b611bd2825f836119b8565b5080545f8255600202905f5260205f2090810190610fcd91905b80821115611c485780546001600160a81b03191681555f6001820155600201611c24565b5090565b5f60208284031215611c5c575f5ffd5b5035919050565b602081525f82518060208401528060208501604085015e5f604082850101526040601f19601f83011684010191505092915050565b80356001600160a01b0381168114611cae575f5ffd5b919050565b5f5f60408385031215611cc4575f5ffd5b611ccd83611c98565b946020939093013593505050565b5f5f5f60608486031215611ced575f5ffd5b611cf684611c98565b9250611d0460208501611c98565b929592945050506040919091013590565b5f60208284031215611d25575f5ffd5b61070882611c98565b604080825283519082018190525f9060208501906060840190835b81811015611d705783516001600160a01b0316835260209384019390920191600101611d49565b5050838103602080860191909152855180835291810192508501905f5b81811015611dab578251845260209384019390920191600101611d8d565b50919695505050505050565b5f5f60408385031215611dc8575f5ffd5b82359150611dd860208401611c98565b90509250929050565b5f5f5f60608486031215611df3575f5ffd5b83359250611e0360208501611c98565b9150611e1160408501611c98565b90509250925092565b634e487b7160e01b5f52604160045260245ffd5b6040516060810167ffffffffffffffff81118282101715611e5157611e51611e1a565b60405290565b604051601f8201601f1916810167ffffffffffffffff81118282101715611e8057611e80611e1a565b604052919050565b5f60208284031215611e98575f5ffd5b813567ffffffffffffffff811115611eae575f5ffd5b8201601f81018413611ebe575f5ffd5b803567ffffffffffffffff811115611ed857611ed8611e1a565b611ee760208260051b01611e57565b80828252602082019150602060608402850101925086831115611f08575f5ffd5b6020840193505b82841015611f725760608488031215611f26575f5ffd5b611f2e611e2e565b611f3785611c98565b8152602085013560ff81168114611f4c575f5ffd5b602082810191909152604086810135908301529083526060909401939190910190611f0f565b9695505050505050565b5f5f60408385031215611f8d575f5ffd5b611f9683611c98565b9150611dd860208401611c98565b5f60208284031215611fb4575f5ffd5b5051919050565b634e487b7160e01b5f52601160045260245ffd5b8082018082111561072257610722611fbb565b600181811c90821680611ff657607f821691505b60208210810361201457634e487b7160e01b5f52602260045260245ffd5b50919050565b808202811582820484141761072257610722611fbb565b5f8261204b57634e487b7160e01b5f52601260045260245ffd5b500490565b8181038181111561072257610722611fbb565b60ff818116838216019081111561072257610722611fbb565b634e487b7160e01b5f52603260045260245ffd5b6001815b60018411156120cb578085048111156120af576120af611fbb565b60018416156120bd57908102905b60019390931c928002612094565b935093915050565b5f826120e157506001610722565b816120ed57505f610722565b8160018114612103576002811461210d57612129565b6001915050610722565b60ff84111561211e5761211e611fbb565b50506001821b610722565b5060208310610133831016604e8410600b841016171561214c575081810a610722565b6121585f198484612090565b805f190482111561216b5761216b611fbb565b029392505050565b5f61070860ff8416836120d3565b5f60208284031215612191575f5ffd5b81518015158114610708575f5ffdfea26469706673582212204363a2746d3da786ec936ddd4b0ae6fcbba38ff9657ccae26013447ff178413e64736f6c634300081c0033",
  "linkReferences": {},
  "deployedLinkReferences": {},
  "immutableReferences": {
    "1160": [
      {
        "length": 32,
        "start": 834
      },
      {
        "length": 32,
        "start": 1351
      },
      {
        "length": 32,
        "start": 2554
      },
      {
        "length": 32,
        "start": 2721
      },
      {
        "length": 32,
        "start": 4603
      },
      {
        "length": 32,
        "start": 5700
      }
    ],
    "1162": [
      {
        "length": 32,
        "start": 2040
      }
    ]
  },
  "inputSourceName": "project/contracts/vaults/Safe.sol",
  "buildInfoId": "solc-0_8_28-566a101200b8a1f8bd70bcd41fdcd39ebbf73fe9"
}